:100000000C9434000C9451000C9451000C94510049
:100010000C9451000C9451000C9451000C9451001C
:100020000C9451000C9451000C9451000C9451000C
:100030000C9451000C9451000C9451000C945100FC
:100040000C9451000C9451000C9451000C945100EC
:100050000C9451000C9451000C9451000C945100DC
:100060000C9451000C94510011241FBECFEFD8E026
:10007000DEBFCDBF13E0A0E0B1E0E8E2F2E102C0F4
:1000800005900D92A035B107D9F723E0A0E5B3E0C4
:1000900001C01D92A835B207E1F70E9482060C94B8
:1000A00012090C940000FC0181811C9BFECF908101
:1000B000953108F08F5F08959091570380FF0BC032
:1000C0009160909357039091570381FF06C092600F
:1000D0009093570308959E7FF4CF9D7FF9CFFC0145
:1000E00080811C9909C08F5F80838FE99FE0019711
:1000F000F1F700C000000895853118F081818F5F0D
:1001000081831082F2CFEF92FF920F931F93CF93D0
:10011000DF9300D0CDB7DEB719821A8288E8E82EC7
:1001200083E1F82E01E010E00130110509F52D9A68
:10013000CE0101960E946F008A81811106C00F5F77
:100140001F4F81E0E81AF10879F7CE0101960E946D
:100150005300982F2D9881E0911101C080E00F90FD
:100160000F90DF91CF911F910F91FF90EF90089525
:100170000A3F110511F42D98DBCF043F81E01807E9
:10018000B9F610E000E0D4CF8F929F92AF92BF9269
:10019000CF92DF92EF92FF920F931F93CF93DF9353
:1001A00000D0CDB7DEB77C016A014C01860E971EE8
:1001B00019821A825A0101E010E0E114F10421F0E1
:1001C0000130110531F52D9ACE0101960E946F0084
:1001D00081E0A81AB1080F5F1F4FA114B10469F79D
:1001E0002D9884E1C816D104F9F481E09981911128
:1001F00001C080E00F900F90DF91CF911F910F9180
:10020000FF90EF90DF90CF90BF90AF909F908F9036
:100210000895E016F10611F42D98D6CF80169106B8
:1002200099F610E000E0D0CFCE0101960E94530075
:10023000E1CF44E150E070E060E090E080E00E94B7
:10024000C400982F81E0911101C080E00895AF9221
:10025000BF92CF92DF92EF92FF920F931F93CF93B3
:10026000DF9300D0CDB7DEB76C015C01A60EB71EE0
:1002700019821A82F12CE12C2D9A01E010E0CE01B6
:1002800001960E946F008981882321F084EFE82E77
:10029000FF24F39481E0E81AF1080F5F1F4F8A8171
:1002A0008823A9F0E114F10491F42D98CE01019670
:1002B0000E9453000F900F90DF91CF911F910F91EB
:1002C000FF90EF90DF90CF90BF90AF9008950130F6
:1002D000110591F2C016D10611F42D98D0CFA016B9
:1002E000B10669F610E000E0CACF5A9A8FE99FE0A4
:1002F0000197F1F700C000005A980895259A90E000
:100300002D9A2FEF39E648E1215030404040E1F787
:1003100000C000002D982FEF39E648E12150304011
:100320004040E1F700C000009F5F8913E9CF9FEFD5
:1003300023ED30E3915020403040E1F700C0000051
:10034000DECF8091C00087FFFCCF8091C600E0E542
:10035000F3E0823519F082E00E947E018091C000B6
:1003600085FFFCCF81918093C60083E0E835F807D4
:10037000A9F70895E0E5F3E09183808388E0828324
:1003800074836383568345830C94A1010F931F9359
:10039000CF93DF93EC01162F82E090E00E945C0087
:1003A000112331F140E850E860E874E790E080E024
:1003B0000E94BA011AE040E850E860E870E090E07E
:1003C00080E00E94BA0140E850E860E870E082E016
:1003D00090E00E94BA01115071F712E340E850E832
:1003E0006BED75E290E080E00E94BA011150B1F728
:1003F000D695C79510E000E0C017D10761F440E83A
:1004000050E860E870E890E080E0DF91CF911F91C4
:100410000F910C94BA0140E050E86FEF70E890E063
:1004200080E00E94BA0140E050E86FEF70E882E09F
:1004300090E00E94BA010F5F1F4FDECFAF92BF92D4
:10044000CF92DF92EF92FF920F931F93CF93DF93A0
:100450005B01EC01D12CC12C88E0E82E8A81282F89
:100460002295269527709B81392F330F330F330F39
:10047000032F022B192F12951695177084FBFF245A
:10048000F0F80115110591F48FEFC81AD80A2496D7
:10049000AC14BD0419F7DF91CF911F910F91FF901C
:1004A000EF90DF90CF90BF90AF90089588819981B1
:1004B00090935103809350038A818F7080935203ED
:1004C0000E94A10181E0F81208C01092510310921D
:1004D0005003E09252030E94A10101501109D1CFB3
:1004E000CF93DF93CDB7DEB728970FB6F894DEBF72
:1004F0000FBECDBF88E0E0E0F1E0DE011196019093
:100500000D928A95E1F762E070E0CE0101960E94BB
:100510001E0228960FB6F894DEBF0FBECDBFDF9146
:10052000CF910895CF93DF93CDB7DEB728970FB65D
:10053000F894DEBF0FBECDBF88E0E8E0F1E0DE0159
:10054000119601900D928A95E1F762E070E0CE017C
:1005500001960E941E0228960FB6F894DEBF0FBEC9
:10056000CDBFDF91CF9108950F931F93CF93DF936A
:10057000CDB7DEB7CC54D1090FB6F894DEBF0FBEAD
:10058000CDBF182F00E08F3F11F411E004E00E946E
:1005900092021A82198284E28B831C821E821D823F
:1005A00082ED8F8318861A86198686E38B871C86D0
:1005B00024E030E03E872D8798E29F87188A1A8AC8
:1005C000198A88E88B8B82E08C8B1E8A1D8A84EDC9
:1005D0008F8B81E0888F1A8E198E82E38B8F1C8E11
:1005E0001E8E1D8E88EA8F8F18A21AA219A244E9C6
:1005F0004BA31CA23EA32DA39FA318A61AA619A61F
:100600008BA71CA61EA61DA684E58FA718AA3AAB29
:1006100029AB88E38BAB1CAA1EAA1DAA48E44FABEA
:1006200018AE1AAE19AE82E58BAF1CAE1EAE1DAE73
:100630004FAF21961FAE219723961FAE1EAE239774
:10064000812F8295880F807E0061082B24960FAF42
:100650002497812F90E053E0969587955A95E1F77E
:1006600025968FAF259727963FAF2EAF279788E91E
:1006700028968FAF289729961FAE29972B961FAEE5
:100680001EAE2B972C964FAF2C972D961FAE2D9705
:1006900063E170E0CE0101960E941E020E94920268
:1006A0000E947002C45BDF4F0FB6F894DEBF0FBE2E
:1006B000CDBFDF91CF911F910F9108951F93CF93DD
:1006C000DF93CDB7DEB7C054D1090FB6F894DEBFC3
:1006D0000FBECDBF182F81110E94920280E4E0E18D
:1006E000F1E0DE01119601900D928A95E1F760E14B
:1006F00070E0CE0101960E941E020E94920211112A
:100700000E947002C05CDF4F0FB6F894DEBF0FBED0
:10071000CDBFDF91CF911F9108950F931F93CF937A
:10072000DF93CDB7DEB7AC970FB6F894DEBF0FBE40
:10073000CDBF8C010197E9F588E0E0E5F1E0DE014D
:10074000119601900D928A95E1F762E070E0CE017A
:1007500001960E941E028CE1E8E5F1E0DE011196AF
:1007600001900D928A95E1F767E070E0CE01019665
:100770000E941E020130110589F480E1E4E7F1E0F6
:10078000DE015D9601900D928A95E1F764E070E0DC
:10079000CE014D960E941E020E947002AC960FB6CA
:1007A000F894DEBF0FBECDBFDF91CF911F910F91A7
:1007B00008950E949202CFCF90E080E00E945C00FA
:1007C00090E080E00E948D0364E670E084E690E0B3
:1007D0000E94270181E090E00C948D03CF93DF937A
:1007E000CDB7DEB76C970FB6F894DEBF0FBECDBFA6
:1007F0008CE1E4E8F1E0DE01119601900D928A951A
:10080000E1F767E070E0CE0101960E941E0280E0F1
:100810006C960FB6F894DEBF0FBECDBFDF91CF91BF
:100820000895AF92BF92CF92DF92EF92FF920F9313
:100830001F93CF93DF9300D000D0CDB7DEB76B010D
:1008400091E0A82EA926811184E000E08063E82EC3
:10085000802F81708A113BC082E095E0B92E8063C1
:10086000F82EF6010995182F811121C01A821982DC
:10087000FB821C8261E070E0CE0101960E941E02A4
:10088000BA94B110EECFF6010995182F81110FC05F
:10089000043051F01A821982EB821C8261E070E010
:1008A000CE0101960E941E020F5F053089F6812F4E
:1008B0000F900F900F900F90DF91CF911F910F919C
:1008C000FF90EF90DF90CF90BF90AF90089586E0BB
:1008D000C4CFCF93DF93CDB7DEB760970FB6F89450
:1008E000DEBF0FBECDBF80E1E0EAF1E0DE01119690
:1008F00001900D928A95E1F764E070E0CE010196D7
:100900000E941E0260960FB6F894DEBF0FBECDBFE8
:10091000DF91CF9108951F93CF93DF93CDB7DEB7CB
:10092000C054D1090FB6F894DEBF0FBECDBF182F4B
:1009300090E080E00E945C00112349F180E4E0EB4C
:10094000F1E0DE01119601900D928A95E1F760E1E8
:1009500070E0CE0101960E941E0288E1E0EFF1E016
:10096000DE01119601900D928A95E1F766E070E044
:10097000CE0101960E941E02C05CDF4F0FB6F894B4
:10098000DEBF0FBECDBFDF91CF911F91089588E0EC
:10099000E8E0F2E0DE01119601900D928A95E1F710
:1009A00062E070E0D6CFCF93DF93CDB7DEB7E097AC
:1009B0000FB6F894DEBF0FBECDBF81E090E00E947D
:1009C0005C008FEF0E94B40280E1E0E1F2E0DE0122
:1009D000919601900D928A95E1F764E070E0CE0166
:1009E00081960E941E0281E00E94B40280E2E0E251
:1009F000F2E0DE01119601900D928A95E1F768E030
:100A000070E0CE0101960E941E02E0960FB6F894A7
:100A1000DEBF0FBECDBFDF91CF9108951F93CF935F
:100A2000DF93CDB7DEB7CC54D1090FB6F894DEBF53
:100A30000FBECDBF162F811177C089E196E028E067
:100A400030E03A83298328E22B831C821E821D8298
:100A50002F8333E038871A86198647E24B873C8715
:100A60001E861D862F87188A1A8A198A44E34B8BA3
:100A70001C8A1E8A1D8A46E34F8B188E44E050E084
:100A80005A8F498F2B8F1C8E1E8E1D8E68E46F8FA0
:100A900038A31AA219A290659BA31CA25EA34DA322
:100AA000782F7295770F707E78607FA390E063E077
:100AB000969587956A95E1F788A71AA619A62BA798
:100AC0001CA65EA74DA77FA788AB1AAA19AA2BABB5
:100AD0001CAA5EAB4DAB88E38FAB18AE1AAE19AE55
:100AE0002BAF3CAF6FE070E0CE0101960E941E027A
:100AF0001123E9F080E1E0E4F2E0DE01DD9601900F
:100B00000D928A95E1F764E070E0CE01CD960E94E7
:100B10001E02C45BDF4F0FB6F894DEBF0FBECDBF21
:100B2000DF91CF911F9108958AE092E088CF88E00D
:100B3000E0E5F2E0DE01DD9601900D928A95E1F7A5
:100B400062E070E0E2CFCF93DF93CDB7DEB7E097FE
:100B50000FB6F894DEBF0FBECDBF0E9475010E9494
:100B60008300882321F190E080E00E945C000E94D5
:100B7000920280E3E8E5F2E0DE01119601900D9229
:100B80008A95E1F76CE070E0CE0101960E941E02AA
:100B90000E9492020E9470020E94DC03E0960FB64F
:100BA000F894DEBF0FBECDBFDF91CF9108950E94B4
:100BB000D304D3CFCF9381E090E00E945C0040E863
:100BC00050E868E778E890E080E00E94BA01C5E16B
:100BD00040E850E860E87FEF90E080E00E94BA01D2
:100BE000C150B1F740E850E86FEF70E890E080E066
:100BF0000E94BA0140E850E86FEF70E890E080E0B2
:100C00000E94BA0140E850E860E870E890E080E0B7
:100C10000E94BA012FEF87E893E121508040904075
:100C2000E1F700C00000CF910895CF92DF92EF92DC
:100C3000FF92CF93DF93CDB7DEB7A4970FB6F894AA
:100C4000DEBF0FBECDBF61E080E00E940E05C09008
:100C50008802D0908902E0908A02F0908B020E9474
:100C6000750180E2ECE8F2E0DE01119601900D9250
:100C70008A95E1F768E070E0CE0101960E941E02BD
:100C80000E948300811131C084E1ECEAF2E0DE01D0
:100C9000119601900D928A95E1F765E070E0CE0122
:100CA00001960E941E0224E53BEB83EB92E021506B
:100CB000304080409040D9F700C000C00000C9A279
:100CC000DAA2EBA2FCA261E070E0CE0181960E9464
:100CD0001E022FEF35E38EE691E021503040804038
:100CE0009040D9F700C00000BACFA4960FB6F89490
:100CF000DEBF0FBECDBFDF91CF91FF90EF90DF90B1
:100D0000CF900895CDB7DEB7C057D1090FB6F8948C
:100D1000DEBF0FBECDBF1092C50087E68093C40032
:100D20008091C0008D7F8093C00086E08093C200D8
:100D300088E18093C100109251031092500388E023
:100D40008093520380E880935303809354038093ED
:100D50005503809356038CEA809357038FE79BEBF0
:100D60000197F1F700C000008091C00087FF09C023
:100D70008091C600893401F1823519F081E00E942A
:100D80007E0188E09091C00095FFFCCF1092C600D4
:100D9000EFE1FEE43197F1F700C000009091C00050
:100DA00097FF06C08091C600833531F082E0E7CF1F
:100DB000815041F783E0E3CF84B18F7E806284B9B4
:100DC000529A2C9A0E94750164E670E084E690E0E5
:100DD0000E94270181E090E00E948D0380908802AC
:100DE00090908902A0908A02B0908B024090C0023D
:100DF0005090C1026090C2027090C302F090C40291
:100E0000E090C5023090C6022090C702AE96FFAEB9
:100E1000AE97AF96EFAEAF97E0963FAEE097E19614
:100E20002FAEE19783E090E00E945C0040E850E83C
:100E300060E870E890E080E00E94BA0164E873E046
:100E400084E690E00E942701082F10E0101316C0DE
:100E5000143009F42CC1F8F4123009F483C01330B3
:100E600009F482C0113009F401C14CED55E068EC81
:100E700070E084E690E00E94C400D4CF0E94750127
:100E8000FFEF21EE84E0F15020408040E1F700C008
:100E900000001F5FDBCF153009F4A4C1163029F71D
:100EA0000E94690411E069E171E0812F0E94110440
:100EB0008111DCC0E1E01E2788E0E8ECF2E0DE0111
:100EC000119601900D928A95E1F762E070E0CE01F3
:100ED00001960E941E02E7CF812F83708230E1F1DC
:100EE0008330E9F18130A9F190E080E00E945C005C
:100EF00040E850E860E870E884E090E00E94BA01C1
:100F000040E850E860E870E890E080E00E94BA01B4
:100F10001F5F42E350E070E060E090E080E00E94FC
:100F2000C4008823C9F290E080E00E945C0040E8A1
:100F300050E860E870E890E080E00E94BA019FEF1E
:100F4000E3ECF9E09150E040F040E1F700C0000030
:100F500069CF81E090E0CACF83E090E0C7CF82E024
:100F600090E0C4CF10E0D5CF81E090E00E945C001B
:100F700040E850E860E870E890E080E00E94BA0144
:100F800064EF71E084EF91E00E942701182F00E0E8
:100F9000101349C0123009F453C0133009F469C06A
:100FA000113009F07BC00E94150680E00E945E03AC
:100FB00090E080E00E945C000E947002AE96EFAD6F
:100FC000AE972A96EFAF2A97AF96FFADAF972B96C5
:100FD000FFAF2B97E0962FADE0972C962FAF2C9775
:100FE000E1968FADE1972D968FAF2D9761E070E080
:100FF000CE01875B9F4F0E941E0261E081E00E944C
:101000000E0588E0E0EDF2E0DE01119601900D9210
:101010008A95E1F762E070E0CE0101960E941E021F
:101020000E94A305FFCE0E9475012FEF83EC99E08B
:10103000215080409040E1F700C000000F5FA8CF32
:101040000E94150690E080E00E945C000E94700201
:10105000F982EA823B822C8261E070E0CE01019647
:101060000E941E0260E081E00E940E050E94DC03E7
:10107000D9CE81E00E945E0388E0E0EDF2E0DE017F
:10108000119601900D928A95E1F762E070E0CE0131
:1010900001960E941E020E94D304C2CF4CED55E07F
:1010A00068EC70E084E690E00E94C40069CF80E2C2
:1010B000E8EDF2E0DE01A75BBF4F01900D928A954B
:1010C000E1F782E090E00E945C0040E850E860E8D0
:1010D00070E890E080E00E94BA0164EF71E084EF74
:1010E00091E00E9427011FEF180F183008F071C01F
:1010F00000E00E9475019FEFE3ECF9E09150E040C1
:10110000F040E1F700C000000F5F101790F724E0F7
:10111000129FF001112489E490E08C0F9D1FE80FCD
:10112000F91FC080D1800281138181E00E948B046D
:101130000E94DA0561E0C601800F911F0E94C6017E
:1011400080E00E948B040E94DA0588E4E8EFF2E078
:10115000DE01119601900D928A95E1F762E170E04F
:10116000CE0101960E941E0261E0C6010E94C601E6
:1011700083E090E00E945C00AD968CAE9DAEAEAE7A
:10118000BFAEAD9761E070E0CE0187599F4F0E94DE
:101190001E0244ED50E36AEF70E08AEF90E00E9497
:1011A000C400811163CF80E1E0E4F3E0DE01119639
:1011B00001900D928A95E1F764E070E0CE0101960E
:1011C0000E941E020115110509F4BACF60E0C801A2
:1011D000B5CF4CED55E068EC70E084E690E00E94FD
:1011E000C4007BCF0E94690411E00E94750164EF86
:1011F00071E084EF91E00E942701823008F012CE66
:101200006EEE73E0812F0E94110491E0192749824C
:101210005A826B827C8261E070E0CE0101960E946E
:081220001E02E3CFF894FFCF9A
:1012280000104800000008050010480000002803CE
:10123800000024000000D20000003600040028004E
:10124800000088020000D401000032000000A8005D
:1012580000009400040028000000A80000005400CA
:1012680000003000040038000000A800000048001A
:101278001000280000004801000024000000D200EF
:10128800000056000400280000004801040018026D
:1012980000004806040028000000E801001048008B
:1012A8000000280304000801000050000400880220
:1012B8000000300004002803000028000400480152
:1012C80000002403000026030000B00000003200E4
:1012D8000800280000002803000027030000280059
:1012E8000000340000003600040028000000480315
:1012F80000005200040048010000280004004801D2
:101308000000280004003800000028030000320014
:10131800040028000000E8060400E8010000280096
:10132800040028000000880708002800000028039F
:10133800040028000000E8060200A8000000480198
:10134800040028000000080F0400E801000028003D
:101358000400E80100002800040028000000280319
:10136800200028000000C803040038000000080A14
:10137800020028000000C803000024000000D2007A
:101388000000360004002800000088020000D40194
:10139800000032000000A8000000940004002800AB
:1013A8000000A800040038000400380004006804A5
:1013B8000000280004006804000028000400280039
:1013C8000000080500106800000028000800280038
:1013D80000008802040028000000080A040098029F
:1013E800200038000200D80320002800000028034D
:1013F80004002800000028035E0196003002000067
:101408004C04000078050000D60600000208000021
:10141800600900008C0A0000000048010400E8018F
:1014280000002800040028000000680904002800C3
:101438000000480604008802000028000400280074
:101448000000A8050000340004002408000028005B
:10145800040064040000280004003400000028038D
:101468000400280300002800040028000000080ADF
:00000001FF
