:100000000C9434000C9451000C9451000C94510049
:100010000C9451000C9451000C9451000C9451001C
:100020000C9451000C9451000C9451000C9451000C
:100030000C9451000C9451000C9451000C945100FC
:100040000C9451000C9451000C9451000C945100EC
:100050000C9451000C9451000C9451000C945100DC
:100060000C9451000C94510011241FBECFEFD8E026
:10007000DEBFCDBF11E0A0E0B1E0E4E7FAE002C0EE
:1000800005900D92AC33B107D9F721E0ACE3B1E0B4
:1000900001C01D92A434B207E1F70E9429010C941B
:1000A00038050C940000CF93DF9300D000D0CDB77B
:1000B000DEB720917C00207F20937C0090917C0013
:1000C000982B90937C0080917A00806480937A00D2
:1000D00080917A00806480937A0080917A0086FD16
:1000E000FCCF80917800909179009C0150E040E035
:1000F00029833A834B835C83CA01B9010E941404AB
:1001000069837A838B839C8369817A818B819C81CB
:100110000F900F900F900F90DF91CF910895259A37
:1001200090E02D9A2FEF39E648E1215030404040D1
:10013000E1F700C000002D982FEF39E648E121508B
:1001400030404040E1F700C000009F5F8913E9CFD5
:100150009FEF23ED30E3915020403040E1F700C0A5
:100160000000DECF8091C00087FFFCCF8091C600E9
:10017000ECE3F1E0823519F082E00E948F0080917B
:10018000C00085FFFCCF81918093C60081E0E434FC
:10019000F807A9F70895ECE3F1E09183808388E004
:1001A000828374836383568345830C94B200AF9239
:1001B000BF92CF92DF92EF92FF920F931F93CF9354
:1001C000DF935B01EC01D12CC12C88E0E82E8A8101
:1001D000282F2295269527709B81392F330F330FB7
:1001E000330F032F022B192F12951695177084FBCE
:1001F000FF24F0F80115110591F48FEFC81AD80A01
:100200002496AC14BD0419F7DF91CF911F910F9183
:10021000FF90EF90DF90CF90BF90AF9008958881CE
:10022000998190933D0180933C018A818F708093E6
:100230003E010E94B20081E0F81208C010923D0118
:1002400010923C01E0923E010E94B200015011095F
:10025000D1CFCDB7DEB7E8970FB6F894DEBF0FBEAB
:10026000CDBF1092C50087E68093C4008091C00086
:100270008D7F8093C00086E08093C20088E18093E8
:10028000C10010923D0110923C0188E080933E0134
:1002900080E880933F0180934001809341018093E7
:1002A00042018CEA809343018FE79BEB0197F1F7C2
:1002B00000C000008091C00087FF09C08091C60087
:1002C000893401F1823519F081E00E948F0088E0C5
:1002D0009091C00095FFFCCF1092C600EFE1FEE4C4
:1002E0003197F1F700C000009091C00097FF06C061
:1002F0008091C600833531F082E0E7CF815041F72D
:1003000083E0E3CF80EC84B994B19F6D94B98AB94E
:1003100087B92C9A2B9A2A9A299A289A5F9A5E9AD8
:1003200080917A00876080937A0080917C0080645D
:1003300080937C0080917A00806880937A0080911D
:100340007A00806480937A0088E0E0E0F1E0DE01EA
:10035000119601900D928A95E1F762E070E0CE016E
:1003600001960E94D7008CE1E8E0F1E0DE011196F1
:1003700001900D928A95E1F767E070E0CE01019659
:100380000E94D70080E1E4E2F1E0DE015D96019099
:100390000D928A95E1F764E070E0CE014D960E94DF
:1003A000D70088E0E4E3F1E0DE019D9601900D9234
:1003B0008A95E1F762E070E0CE018D960E94D70049
:1003C0008091430183608093430183B185E090E095
:1003D0000E9453005B01C82E092F84E090E00E9428
:1003E0005300D62EE72EF82E192F20E030E04FE7ED
:1003F00053E4ADAABEAACFAA08AF6DA97EA98FA962
:1004000098AD0E94A70420E030EC4FE754E46DABB8
:100410007EAB8FAB98AF6DA97EA98FA998AD0E94D6
:100420006C0320E030E0A9016DAB7EAB8FAB98AFE1
:100430006DA97EA98FA998AD0E9400036DAB7EAB1C
:100440008FAB98AF6DA97EA98FA998AD0E94DE03EE
:10045000062F20E030E04FE753ECDDAAEEAAFFAA1A
:1004600018AF6DA97EA98FA998AD0E94A70420E0BE
:1004700030EC4FE754E46DAB7EAB8FAB98AF6DA91A
:100480007EA98FA998AD0E946C0320E030E04FE771
:1004900053E46DAB7EAB8FAB98AF6DA97EA98FA9EE
:1004A00098AD0E9400036DAB7EAB8FAB98AF6DA98A
:1004B0007EA98FA998AD0E94DE03162F40E850E870
:1004C000B80190E080E00E94CB0018990EC040E88F
:1004D00050E8B80180E092E00E94CB0040E850E88C
:1004E000B80190E080E00E94CB0083E090E00E94A1
:1004F000530020E030E849E054E46DAB7EAB8FABB5
:1005000098AF6DA97EA98FA998AD0E94A204181674
:1005100074F440E850E8B80184E090E00E94CB0019
:1005200040E850E8B80190E080E00E94CB0090E005
:1005300080E00E94530020E030E046E154E46DABDF
:100540007EAB8FAB98AF6DA97EA98FA998AD0E94A5
:10055000A204181674F440E850E8B80182E090E074
:100560000E94CB0040E850E8B80190E080E00E9493
:10057000CB0081E090E00E94530020E030E048ECA6
:1005800053E46DAB7EAB8FAB98AF6DA97EA98FA9FD
:1005900098AD0E94A204181674F440E850E8B8011F
:1005A00088E090E00E94CB0040E850E8B80190E07D
:1005B00080E00E94CB0082E090E00E94530020E0A7
:1005C00030E046E154E46DAB7EAB8FAB98AF6DA9E4
:1005D0007EA98FA998AD0E94A20418160CF0F0CE47
:1005E00040E850E8B80181E090E00E94CB0040E88C
:1005F00050E8B80190E080E00E94CB00E1CE505876
:10060000BB27AA270E9417030C9468040E945A046F
:1006100038F00E94610420F039F49F3F19F426F469
:100620000C9457040EF4E095E7FB0C945104E92F69
:100630000E94790458F3BA17620773078407950775
:1006400020F079F4A6F50C949B040EF4E0950B2EA3
:10065000BA2FA02D0B01B90190010C01CA01A00114
:100660001124FF27591B99F0593F50F4503E68F16F
:100670001A16F040A22F232F342F4427585FF3CFB0
:10068000469537952795A795F0405395C9F77EF481
:100690001F16BA0B620B730B840BBAF09150A1F0CA
:1006A000FF0FBB1F661F771F881FC2F70EC0BA0F50
:1006B000621F731F841F48F4879577956795B795D8
:1006C000F7959E3F08F0B0CF9395880F08F09927D3
:1006D000EE0F9795879508950E9480030C94680407
:1006E0000E94610458F00E945A0440F029F45F3FD0
:1006F00029F00C94510451110C949C040C9457044F
:100700000E94790468F39923B1F3552391F3951B63
:10071000550BBB27AA2762177307840738F09F5F22
:100720005F4F220F331F441FAA1FA9F335D00E2E8F
:100730003AF0E0E832D091505040E695001CCAF7FC
:100740002BD0FE2F29D0660F771F881FBB1F2617BF
:1007500037074807AB07B0E809F0BB0B802DBF0196
:10076000FF2793585F4F3AF09E3F510578F00C9465
:1007700051040C949C045F3FE4F3983ED4F38695B7
:1007800077956795B795F7959F5FC9F7880F911D86
:100790009695879597F90895E1E0660F771F881F72
:1007A000BB1F621773078407BA0720F0621B730B25
:1007B000840BBA0BEE1F88F7E09508950E94E503BD
:1007C0006894B1110C949C0408950E94810488F0EF
:1007D0009F5798F0B92F9927B751B0F0E1F0660F05
:1007E000771F881F991F1AF0BA95C9F714C0B13046
:1007F00091F00E949B04B1E008950C949B04672F34
:10080000782F8827B85F39F0B93FCCF38695779574
:100810006795B395D9F73EF490958095709561955D
:100820007F4F8F4F9F4F0895E89409C097FB3EF488
:1008300090958095709561957F4F8F4F9F4F99232D
:10084000A9F0F92F96E9BB279395F69587957795AB
:100850006795B795F111F8CFFAF4BB0F11F460FF6B
:100860001BC06F5F7F4F8F4F9F4F16C0882311F0C3
:1008700096E911C0772321F09EE8872F762F05C0D7
:10088000662371F096E8862F70E060E02AF09A9572
:10089000660F771F881FDAF7880F9695879597F967
:1008A000089597F99F6780E870E060E008959FEFF2
:1008B00080EC089500240A941616170618060906F7
:1008C000089500240A9412161306140605060895C6
:1008D000092E0394000C11F4882352F0BB0F40F44E
:1008E000BF2B11F460FF04C06F5F7F4F8F4F9F4F8E
:1008F000089557FD9058440F551F59F05F3F71F010
:100900004795880F97FB991F61F09F3F79F0879576
:100910000895121613061406551FF2CF4695F1DFFF
:1009200008C0161617061806991FF1CF869571058F
:10093000610508940895E894BB2766277727CB01C3
:1009400097F908950E94140508F48FEF08950E9406
:10095000BA040C9468040E945A0438F00E9461049E
:1009600020F0952311F00C9451040C945704112499
:100970000C949C040E94790470F3959FC1F3950F29
:1009800050E0551F629FF001729FBB27F00DB11D13
:10099000639FAA27F00DB11DAA1F649F6627B00DA3
:1009A000A11D661F829F2227B00DA11D621F739F8C
:1009B000B00DA11D621F839FA00D611D221F749F9A
:1009C0003327A00D611D231F849F600D211D822FE1
:1009D000762F6A2F11249F5750409AF0F1F0882308
:1009E0004AF0EE0FFF1FBB1F661F771F881F915035
:1009F0005040A9F79E3F510580F00C9451040C948F
:100A00009C045F3FE4F3983ED4F386957795679511
:100A1000B795F795E7959F5FC1F7FE2B880F911D5E
:100A20009695879597F90895990F0008550FAA0B89
:100A3000E0E8FEEF16161706E807F907C0F01216F1
:100A40001306E407F50798F0621B730B840B950BF4
:100A500039F40A2661F0232B242B252B21F4089549
:100A60000A2609F4A140A6958FEF811D811D0895E6
:040A7000F894FFCF28
:100A74001000280000004801000024000000D200FB
:100A84000000560004002800000048010400180279
:100A940000004806040028000000E8010010480097
:0C0AA400000028030010480000000805B6
:00000001FF
