:100000000C9434000C9451000C9451000C94510049
:100010000C9451000C9451000C9451000C9451001C
:100020000C9451000C9451000C9451000C9451000C
:100030000C9451000C9451000C9451000C945100FC
:100040000C9451000C9451000C9451000C945100EC
:100050000C9451000C9451000C9451000C945100DC
:100060000C9451000C94510011241FBECFEFD8E026
:10007000DEBFCDBF11E0A0E0B1E0EEE2FAE002C0E9
:1000800005900D92AC33B107D9F721E0ACE3B1E0B4
:1000900001C01D92A434B207E1F70E94EC000C9459
:1000A00015050C940000259A90E02D9A2FEF39E663
:1000B00048E1215030404040E1F700C000002D9859
:1000C0002FEF39E648E1215030404040E1F700C0D1
:1000D00000009F5F8913E9CF9FEF23ED30E391503C
:1000E00020403040E1F700C00000DECF8091C0002A
:1000F00087FFFCCF8091C600ECE3F1E0823519F078
:1001000082E00E9453008091C00085FFFCCF819166
:100110008093C60081E0E434F807A9F70895ECE382
:10012000F1E0918380836283548343833683258304
:100130000C947600AF92BF92CF92DF92EF92FF9233
:100140000F931F93CF93DF935B01EC01D12CC12C54
:1001500088E0E82E8A81282F2295269527709B819A
:10016000392F330F330F330F032F022B192F129513
:100170001695177084FBFF24F0F80115110591F412
:100180008FEFC81AD80A2496AC14BD0419F7DF9172
:10019000CF911F910F91FF90EF90DF90CF90BF9084
:1001A000AF9008958881998190933D0180933C019F
:1001B0008A818F7080933E010E94760081E0F81260
:1001C00008C010923D0110923C01E0923E010E9455
:1001D000760001501109D1CFCDB7DEB7E8970FB641
:1001E000F894DEBF0FBECDBF1092C50087E68093A6
:1001F000C4008091C0008D7F8093C00086E0809312
:10020000C20088E18093C10010923D0110923C0130
:1002100088E080933E0180E880933F018093400115
:1002200080934101809342018CEA809343018FE7E0
:100230009BEB0197F1F700C000008091C00087FFA1
:1002400009C08091C600893401F1823519F081E03E
:100250000E94530088E09091C00095FFFCCF10925F
:10026000C600AFE1BEE41197F1F700C00000909125
:10027000C00097FF06C08091C600833531F082E050
:10028000E7CF815041F783E0E3CF90EC94B984B19C
:100290008F6D84B98AB18F738AB997B92C9A2B9ACA
:1002A0002A9A299A289A5F9A5E9A80917A008760A2
:1002B00080937A0080917C00806480937C008091A0
:1002C0007A00806880937A0080917A0080648093BD
:1002D0007A0088E0E0E0F1E0DE01119601900D92F5
:1002E0008A95E1F762E070E0CE0101960E949A00E3
:1002F0008CE1E8E0F1E0DE01119601900D928A9523
:10030000E1F767E070E0CE0101960E949A0080E17B
:10031000E4E2F1E0DE015D9601900D928A95E1F74D
:1003200064E070E0CE014D960E949A0088E0E4E31C
:10033000F1E0DE019D9601900D928A95E1F762E071
:1003400070E0CE018D960E949A00809143018360F7
:10035000809343011C9914C020E830E840E850E83D
:1003600068E070E084E090E00E948F0020E830E8D0
:1003700040E850E868E070E090E080E00E948F0084
:100380001A9914C020E830E840E850E870E060E0D6
:1003900090E080E00E948F0020E830E840E850E8DC
:1003A00068E070E090E080E00E948F00199914C02E
:1003B00020E830E840E850E864E070E090E080E059
:1003C0000E948F0020E830E840E850E868E070E0E4
:1003D00090E080E00E948F001B9914C020E830E874
:1003E00040E850E868E070E082E090E00E948F0012
:1003F00020E830E840E850E868E070E090E080E015
:100400000E948F00189914C020E830E840E850E8B6
:1004100066E070E090E080E00E948F0020E830E825
:1004200040E850E868E070E090E080E00E948F00D3
:100430004F9914C020E830E840E850E862E070E0EE
:1004400090E080E00E948F0020E830E840E850E82B
:1004500068E070E090E080E00E948F004E9914C048
:1004600020E830E840E850E868E070E088E090E09C
:100470000E948F0020E830E840E850E868E070E033
:1004800090E080E00E948F0080917C00807F8093CC
:100490007C0080917C00856080937C0080917A0054
:1004A000806480937A0080917A00806480937A00DF
:1004B00080917A0086FDFCCF809178009091790040
:1004C0009C0150E040E02DAB3EAB4FAB58AFCA01B2
:1004D000B9010E941A0420E030E04FE753E46DAB0D
:1004E0007EAB8FAB98AF6DA97EA98FA998AD0E9406
:1004F000A80420E030EC4FE754E46DAB7EAB8FAB4B
:1005000098AF6DA97EA98FA998AD0E94720320E0D3
:1005100030E0A9016DAB7EAB8FAB98AF6DA97EA922
:100520008FA998AD0E94060320917C00207F209324
:100530007C0020917C00246020937C0020917A0034
:10054000206420937A0020917A00206420937A001E
:1005500020917A0026FDFCCFE0907800F0907900A1
:100560006DAB7EAB8FAB98AF6DA97EA98FA998AD0F
:100570000E94E403162FC701B0E0A0E08DAB9EAB54
:10058000AFABB8AFB701CD010E941A0420E030E054
:100590004FE753EC6DAB7EAB8FAB98AF6DA97EA9E7
:1005A0008FA998AD0E94A80420E030EC4FE754E4F6
:1005B0006DAB7EAB8FAB98AF6DA97EA98FA998ADBF
:1005C0000E94720320E030E04FE753E46DAB7EAB56
:1005D0008FAB98AF6DA97EA98FA998AD0E94060335
:1005E0006DAB7EAB8FAB98AF6DA97EA98FA998AD8F
:1005F0000E94E403562F20E830E8412F68E070E0C5
:1006000090E080E00E948F00A0CE5058BB27AA2720
:100610000E941D030C946E040E94600438F00E9436
:10062000670420F039F49F3F19F426F40C945D041C
:100630000EF4E095E7FB0C945704E92F0E947F0429
:1006400058F3BA17620773078407950720F079F407
:10065000A6F50C94A1040EF4E0950B2EBA2FA02D54
:100660000B01B90190010C01CA01A0011124FF275F
:10067000591B99F0593F50F4503E68F11A16F0405A
:10068000A22F232F342F4427585FF3CF4695379559
:100690002795A795F0405395C9F77EF41F16BA0B1E
:1006A000620B730B840BBAF09150A1F0FF0FBB1FCC
:1006B000661F771F881FC2F70EC0BA0F621F731F15
:1006C000841F48F4879577956795B795F7959E3F72
:1006D00008F0B0CF9395880F08F09927EE0F979503
:1006E000879508950E9486030C946E040E94670407
:1006F00058F00E94600440F029F45F3F29F00C9408
:10070000570451110C94A2040C945D040E947F04C0
:1007100068F39923B1F3552391F3951B550BBB2730
:10072000AA2762177307840738F09F5F5F4F220F75
:10073000331F441FAA1FA9F335D00E2E3AF0E0E86C
:1007400032D091505040E695001CCAF72BD0FE2FB6
:1007500029D0660F771F881FBB1F2617370748074A
:10076000AB07B0E809F0BB0B802DBF01FF27935802
:100770005F4F3AF09E3F510578F00C9457040C946B
:10078000A2045F3FE4F3983ED4F38695779567958E
:10079000B795F7959F5FC9F7880F911D9695879537
:1007A00097F90895E1E0660F771F881FBB1F621756
:1007B00073078407BA0720F0621B730B840BBA0B14
:1007C000EE1F88F7E09508950E94EB036894B1113D
:1007D0000C94A20408950E94870488F09F5798F013
:1007E000B92F9927B751B0F0E1F0660F771F881F36
:1007F000991F1AF0BA95C9F714C0B13091F00E9450
:10080000A104B1E008950C94A104672F782F8827E4
:10081000B85F39F0B93FCCF3869577956795B39576
:10082000D9F73EF490958095709561957F4F8F4FE5
:100830009F4F0895E89409C097FB3EF490958095EA
:10084000709561957F4F8F4F9F4F9923A9F0F92F96
:1008500096E9BB279395F695879577956795B79514
:10086000F111F8CFFAF4BB0F11F460FF1BC06F5FFA
:100870007F4F8F4F9F4F16C0882311F096E911C00C
:10088000772321F09EE8872F762F05C0662371F02D
:1008900096E8862F70E060E02AF09A95660F771F41
:1008A000881FDAF7880F9695879597F9089597F935
:1008B0009F6780E870E060E008959FEF80EC089506
:1008C00000240A941616170618060906089500242F
:1008D0000A9412161306140605060895092E0394A9
:1008E000000C11F4882352F0BB0F40F4BF2B11F41D
:1008F00060FF04C06F5F7F4F8F4F9F4F089557FD7C
:100900009058440F551F59F05F3F71F04795880F7D
:1009100097FB991F61F09F3F79F087950895121614
:1009200013061406551FF2CF4695F1DF08C01616C0
:1009300017061806991FF1CF869571056105089471
:100940000895E894BB2766277727CB0197F9089588
:100950000E94BB040C946E040E94600438F00E9454
:10096000670420F0952311F00C9457040C945D0457
:1009700011240C94A2040E947F0470F3959FC1F38C
:10098000950F50E0551F629FF001729FBB27F00D3D
:10099000B11D639FAA27F00DB11DAA1F649F662792
:1009A000B00DA11D661F829F2227B00DA11D621FE1
:1009B000739FB00DA11D621F839FA00D611D221F9B
:1009C000749F3327A00D611D231F849F600D211D7F
:1009D000822F762F6A2F11249F5750409AF0F1F002
:1009E00088234AF0EE0FFF1FBB1F661F771F881F6B
:1009F00091505040A9F79E3F510580F00C94570448
:100A00000C94A2045F3FE4F3983ED4F38695779567
:100A10006795B795F795E7959F5FC1F7FE2B880F10
:0E0A2000911D9695879597F90895F894FFCF4C
:100A2E001000280000004801000024000000D20041
:100A3E0000005600040028000000480104001802BF
:100A4E0000004806040028000000E80100104800DD
:0C0A5E00000028030010480000000805FC
:00000001FF
