:100000000C9434000C9451000C9451000C94510049
:100010000C9451000C9451000C9451000C9451001C
:100020000C9451000C9451000C9451000C9451000C
:100030000C9451000C9451000C9451000C945100FC
:100040000C9451000C9451000C9451000C945100EC
:100050000C9451000C9451000C9451000C945100DC
:100060000C9451000C94510011241FBECFEFD8E026
:10007000DEBFCDBF11E0A0E0B1E0EEE6F3E002C0EC
:1000800005900D92AC33B107D9F721E0ACE3B1E0B4
:1000900001C01D92A434B207E1F70E94E1000C9464
:1000A000B5010C940000259A90E02D9A2FEF39E6C7
:1000B00048E1215030404040E1F700C000002D9859
:1000C0002FEF39E648E1215030404040E1F700C0D1
:1000D00000009F5F8913E9CF9FEF23ED30E391503C
:1000E00020403040E1F700C00000DECF8091C0002A
:1000F00087FFFCCF8091C600ECE3F1E0823519F078
:1001000082E00E9453008091C00085FFFCCF819166
:100110008093C60081E0E434F807A9F70895AF9210
:10012000BF92CF92DF92EF92FF920F931F93CF93E4
:10013000DF935B01EC01D12CC12C88E0E82E8A8191
:10014000282F2295269527709B81392F330F330F47
:10015000330F032F022B192F12951695177084FB5E
:10016000FF24F0F80115110591F48FEFC81AD80A91
:100170002496AC14BD0419F7DF91CF911F910F9114
:10018000FF90EF90DF90CF90BF90AF90089588815F
:10019000998190933D0180933C018A818F70809377
:1001A0003E010E94760081E0F81208C010923D01E5
:1001B00010923C01E0923E010E947600015011092C
:1001C000D1CFCDB7DEB7E4970FB6F894DEBF0FBE40
:1001D000CDBF1092C50087E68093C4008091C00017
:1001E0008D7F8093C00086E08093C20088E1809379
:1001F000C10010923D0110923C0188E080933E01C5
:1002000080E880933F018093400180934101809377
:1002100042018CEA809343018FE79BEB0197F1F752
:1002200000C000008091C00087FF09C08091C60017
:10023000893401F1823519F081E00E94530088E091
:100240009091C00095FFFCCF1092C600EFE1FEE454
:100250003197F1F700C000009091C00097FF06C0F1
:100260008091C600833531F082E0E7CF815041F7BD
:1002700083E0E3CF84B1877E806284B984B18F6DDF
:1002800084B9529A2C9A88E0E0E0F1E0DE01119600
:1002900001900D928A95E1F762E070E0CE0101963F
:1002A0000E948F008CE1E8E0F1E0DE011196019000
:1002B0000D928A95E1F767E070E0CE0101960E9409
:1002C0008F0080E1E4E2F1E0DE015D9601900D92A5
:1002D0008A95E1F764E070E0CE014D960E948F00B0
:1002E00088E0E4E3F1E0DE019D9601900D928A95AD
:1002F000E1F762E070E0CE018D960E948F0084E00D
:10030000E82EF12C08E010E880914301836080938F
:1003100043011C9920C0F0923D01E0923C01009302
:100320003E0110933F01109340011093410110933F
:1003300042010E94760010923D0110923C01009310
:100340003E0110933F01109340011093410110931F
:1003500042010E947600FFEF23EC89E0F15020403B
:0E0360008040E1F700C00000CFCFF894FFCF3F
:10036E001000280000004801000024000000D20008
:10037E000000560004002800000048010400180286
:10038E0000004806040028000000E80100104800A4
:0C039E00000028030010480000000805C3
:00000001FF
