:10000000A6C00000BFC00000BDC00000BBC0000013
:10001000B9C00000B7C00000B5C00000B3C0000008
:10002000B1C00000AFC00000ADC000006DC4000052
:10003000A9C00000A7C00000A5C00000A3C0000028
:10004000A1C000009FC000009DC000009BC0000038
:1000500099C0000097C0000095C0000093C0000048
:1000600091C000008FC000008DC000008BC0000058
:1000700089C00000240350004F004B004B00450096
:100080004E00200043004F004E00540052004F002D
:100090004C004C004500520000001C0348004F007B
:1000A00052004900200043004F002E002C004C005D
:1000B000540044002E000000040309040902290032
:1000C00001010080FA090400000203000000092178
:1000D0001101000122560007050203400005070533
:1000E000810340000512010002000000400D0F9244
:1000F0000000010102000105010905A1011500250B
:100100000135004501750195100509190129108176
:100110000205012507463B0175049501651409395F
:10012000814265009501810126FF0046FF000930EC
:100130000931093209357508950481020600FF0965
:1001400020950181020A212695089102C000112400
:100150001FBECFEFD2E0DEBFCDBF11E0A0E0B1E027
:10016000E8E5FDE002C005900D92A031B107D9F796
:1001700021E0A0E1B1E001C01D92A533B207E1F793
:1001800012D0E8C53DCF9091160191110BC080931C
:10019000160188E0E0E0F1E0A0E2B1E001900D920C
:1001A0008A95E1F70895CDB7DEB728970FB6F89492
:1001B000DEBF0FBECDBF84B7877F84BF0FB6F89474
:1001C000A895809160008861809360001092600023
:1001D0000FBE8AB180638AB98BB180638BB987E621
:1001E00090E09093CD008093CC0086E08093CA008D
:1001F0001092C80088E18093C900539A5A9A8FEDF3
:100200009BEA0197F1F700C000008091C80085FFCC
:10021000FCCF89E48093CE0068D3789488E0E0E056
:10022000F1E0A8E1B1E001900D928A95E1F788E054
:100230008093170113E508E022E0F22EEE24E39408
:1002400032E5D32E48E0C42E8091C80087FF2AC033
:100250009091CE00809117018730C0F0911114C0A9
:100260008091C80085FFFCCF1093CE00109216013C
:1002700088E0E0E0F1E0A8E1B1E001900D928A951C
:10028000E1F7C0921701E0CF873049F4E82FF0E0A2
:10029000E85EFE4F90838F5F80931701D5CF84E097
:1002A00072DFD2CF80912C01843009F074C0F092BB
:1002B000E9008091E80082FF12C08091E80085FF8C
:1002C00009C050E040E068E070E0CE0101964FD1F7
:1002D0008111F7CF8091E8008B778093E800E0925E
:1002E000E9008091E800982F9170B92E80FF53C0EB
:1002F0008091150190911601892B09F08DC0A09075
:100300001701A8E0AA1270C090911F01892F8C7F5D
:100310008C3A09F075C0892F817090FD80E291FDC3
:1003200080619BB19063809589238BB987E0E8E178
:10033000F1E0A0E2B1E001900D928A95E1F7E8E1E9
:10034000F1E0DF01802F1D928A95E9F710921701E5
:10035000809117018093140150E040E068E070E064
:1003600080E291E0B6D08111F7CF8091E8008E77DE
:100370008093E800BB2031F08091C80085FFFCCF5E
:10038000D092CE008091150191E0980F843009F44D
:1003900045C090931501B7D480911601882309F4C4
:1003A00053CF409110015091110160911201709151
:1003B00013014F5F5F4F6F4F7F4F4093100150937A
:1003C00011016093120170931301AB016627772727
:1003D000880F481730F590E040FF90E38BB18063C1
:1003E000909589238BB930CF47E050E068E071E009
:1003F00080E291E0A2D4892B39F083E0A11001C002
:1004000082E0C1DEB12CA4CFAA20E1F380911401D7
:10041000A812F8CF84E0F5CFB12C9ECF1092150131
:10042000BACF8C5F481718F48BB18063DBCF109282
:10043000100110921101109212011092130104CFB9
:1004400042E360EC82E094D142E361EC81E090C150
:100450009C01DA01832F992783309105B9F060F46C
:100460008130910561F10297E1F489E290E02CEB93
:1004700030E02D933C9308958132910529F18297C4
:1004800081F486E590E027EF30E0F3CFC9019927AA
:10049000213061F08230910579F0E8EBF0E0892BB2
:1004A00039F090E080E030E020E0E3CFEAE9F0E0EE
:1004B000849190E09F01DDCFE4E7F0E0F9CF82E1A5
:1004C00090E025EE30E0D5CF89E090E02EEC30E0F2
:1004D000D0CFAF92BF92CF92DF92FF920F931F9334
:1004E000CF93DF936C01EB018A0195D1F82E811136
:1004F00024C00115110539F0F80180819181C81BD4
:10050000D90BC80ED91EB12CA12C2097B1F0809127
:10051000E80085FD22C08091E8008E778093E80096
:10052000F2D301151105A1F0F80180819181A80E87
:10053000B91EB182A08285E0F82E8F2DDF91CF9178
:100540001F910F91FF90DF90CF90BF90AF900895D3
:1005500062D18823D1F2F82EF0CFF60181916F019C
:100560008093F1002197FFEFAF1ABF0ACECFAF9271
:10057000BF92CF92DF92FF920F931F93CF93DF939F
:100580006C01EB018A0147D1F82E811124C00115BD
:10059000110539F0F80180819181C81BD90BC80E73
:1005A000D91EB12CA12C2097B1F08091E80085FDD7
:1005B00022C08091E8008B778093E800A4D30115D6
:1005C0001105A1F0F80180819181A80EB91EB182B8
:1005D000A08285E0F82E8F2DDF91CF911F910F9192
:1005E000FF90DF90CF90BF90AF90089514D18823F3
:1005F000D1F2F82EF0CF8091F100F60181936F01D6
:100600002197FFEFAF1ABF0ACECFFC01CB0120919B
:100610003301309134012617370790F0009729F401
:100620002091E8002E772093E80040E0009751F4F5
:10063000411108C08091E80082FF30C080E0089539
:10064000C901F3CF20912C012223A1F12530A1F182
:100650002091E80023FD2CC02091E80022FDEACF84
:100660002091E80020FFE2CF2091F20030E00097D7
:1006700019F02034310558F041E02034310509F0FB
:1006800040E02091E8002E772093E800CFCF419101
:100690004093F10001972F5F3F4FE9CF80912C01EC
:1006A000882341F0853041F08091E80083FFC2CF7C
:1006B00081E0089582E0089583E00895FC01CB0174
:1006C00020913301309134012617370790F00097BD
:1006D00029F42091E8002E772093E80040E000976D
:1006E00051F4411108C08091E80082FF31C080E0E0
:1006F0000895C901F3CF20912C012223A9F12530BF
:10070000A9F12091E80023FD2DC02091E80022FDF1
:10071000EACF2091E80020FFE2CF2091F20030E004
:10072000009719F02034310558F041E020343105AC
:1007300009F040E02091E8002E772093E800CFCF29
:1007400044914093F100319601972F5F3F4FE8CFDE
:1007500080912C01882341F0853041F08091E800A0
:1007600083FFC1CF81E0089582E0089583E008957A
:10077000982F953028F08F708093E90081E00895DC
:100780009093E900242F762F50E0981731F0709164
:10079000EC002091ED005091F00021FD02C09F5F20
:1007A000E8CF3091EB003E7F3093EB003091ED00CD
:1007B0003D7F3093ED003091EB0031603093EB00E2
:1007C0007093EC002093ED005093F0002091EE0028
:1007D00027FDE5CF80E0089580912D0187FF13C0AC
:1007E0008091E80082FF06C08091E8008B778093BB
:1007F000E80004C080912C018111F2CF089580910E
:100800002C018823D9F38091E80080FFF8CF8091F4
:10081000E8008E77ECCF2091E4003091E50095E67A
:10082000A9012091EC00822F817020FF06C08091E9
:10083000E80080FF06C080E008952091E80022FDD6
:100840001AC080912C01882389F0853089F080912D
:10085000EB0085FD0FC02091E4003091E5004217C8
:100860005307F9F29150E1F684E0089582E008958B
:1008700083E0089581E0089541D043D08091D8006D
:100880008F778093D8008091D80080688093D800BB
:100890008091D8008F7D8093D80084E089BD86E068
:1008A00089BD09B400FEFDCF10922C0110922801E1
:1008B00010922A011092290142E360E080E058DFA3
:1008C0008091E1008E7F8093E1008091E200816061
:1008D0008093E2008091E20088608093E200809142
:1008E000E0008E7F8093E0000895E3E6F0E08081F1
:1008F0008E7F808381E080932B01BECF1092E20037
:1009000008951092E10008951F920F920FB60F9272
:1009100011242F933F934F935F936F937F938F9304
:100920009F93AF93BF93EF93FF938091E10082FF7A
:100930000AC08091E20082FF06C08091E1008B7FB7
:100940008093E100DFD18091E10080FF17C08091AA
:10095000E20080FF13C08091E2008E7F8093E2006E
:100960008091E20080618093E2008091D8008062F3
:100970008093D80019BC10922C01C4D18091E10061
:1009800084FF27C08091E20084FF23C084E089BDFA
:1009900086E089BD09B400FEFDCF8091D8008F7D2F
:1009A0008093D8008091E1008F7E8093E100809158
:1009B000E2008F7E8093E2008091E200816080936C
:1009C000E200809128018823D9F184E080932C01F2
:1009D00099D18091E10083FF22C08091E20083FFE2
:1009E0001EC08091E100877F8093E10082E08093C8
:1009F0002C01109228018091E1008E7F8093E1000C
:100A00008091E2008E7F8093E2008091E20080611D
:100A10008093E20042E360E080E0AADE73D1FF91C0
:100A2000EF91BF91AF919F918F917F916F915F9166
:100A30004F913F912F910F900FBE0F901F901895DF
:100A40008091E30087FD02C081E0C0CF83E0BECF8C
:100A50001F93CF93DF93CDB7DEB7AA970FB6F89465
:100A6000DEBF0FBECDBF8DE291E0FC01019620916B
:100A7000F100208321E085339207B9F743D18091BB
:100A8000E80083FF10C080912D0190912E019530D8
:100A900009F4C2C000F5292F2D7F213009F489C047
:100AA000992309F45EC08091E80083FF0AC0809119
:100AB000E800877F8093E8008091EB00806280935C
:100AC000EB00AA960FB6F894DEBF0FBECDBFDF9144
:100AD000CF911F910895983009F4D5C0993009F449
:100AE000DFC0963001F780588230E8F680912F0100
:100AF000909130018C3D23E0920709F0AFC083E074
:100B00008A838AE289834FB7F894DE01139620E046
:100B10003EE051E2E32FF0E050935700E49120FFD4
:100B200003C0E295EF703F5FEF708E2F90E0EA30E8
:100B300008F492C0C7968D939D932F5F243151F78F
:100B40004FBF8091E800877F8093E8006AE270E001
:100B5000CE0101965ADD8091E8008B778093E80002
:100B6000A2CF803899F0823809F09DCF8091310171
:100B70008F70853008F097CF8093E9008091EB006B
:100B800085FB882780F91092E90006C08091290131
:100B900090912A01911182609091E800977F909343
:100BA000E8008093F1001092F1008091E8008E77C8
:100BB000A5C0882309F492C0823009F074CF8091D7
:100BC0002F01811196C0809131018F702FEF280F76
:100BD000243008F068CF8093E9002091EB0020FFDB
:100BE00088C0933031F48091EB0080628093EB00F9
:100BF00080C09091EB0090619093EB0021E030E099
:100C000001C0220F8A95EAF72093EA001092EA00C9
:100C10008091EB008860EACF811145CF10912F01C0
:100C20001F778091E3008078812B8093E30080918F
:100C3000E800877F8093E800CFDD8091E80080FFA7
:100C4000FCCF8091E30080688093E30082E0111183
:100C500083E080932C0127CFC0966DCF6091310146
:100C600070913201AE014F5F5F4FF2DBBC01892B07
:100C700009F419CF8091E800877F8093E80089818B
:100C80009A811CDD68CF803809F00DCF8091E80093
:100C9000877F8093E800809128018093F10085CFC1
:100CA000811101CF90912F01923008F0FCCE8091FC
:100CB000E800877F8093E800909328018DDD809184
:100CC0002801882311F084E005C08091E30087FDAE
:100CD000FACF81E080932C01B3DBE5CE80912F0128
:100CE000813009F0E0CE81E0933009F080E080931C
:100CF0002A011092E9008091E800877F8093E80044
:100D00006BDDD1CE0895CF9380912C01882399F08B
:100D1000C091E900CF709091EC00892F817090FD17
:100D200080E8C82B1092E9008091E80083FD90DEF6
:100D3000CF70C093E900CF910895FB01DC0104C09E
:100D40008D910190801921F441505040C8F7881BC3
:080D5000990B0895F894FFCF00
:100D580000000880808080AC00000880808080AC23
:00000001FF
